:020000041000EA
:1000000000B5324B212058609868022188439860DF
:10001000D860186158612E4B002199600221596106
:100020000121F02299502B49196001219960352056
:1000300000F044F80222904214D00621196600F024
:1000400034F8196E01211966002018661A6600F04E
:100050002CF8196E196E196E052000F02FF8012189
:100060000842F9D1002199601B49196000215960AB
:100070001A491B48016001219960EB211966A021F2
:10008000196600F012F800219960164914480160C1
:100090000121996001BC002800D000471248134993
:1000A000086003C880F30888084703B5996A0420EC
:1000B0000142FBD001200142F8D103BD02B5186610
:1000C0001866FFF7F2FF186E186E02BD00000240BE
:1000D000000000180000070000035F00212200005C
:1000E000F4000018222000A00001001008ED00E03C
:1000F00000000000000000000000000074B24E7A12
:1001000000200420F7010010C3010010C5010010F9
:10011000C1010010C1010010C1010010C101001097
:10012000C1010010C1010010C1010010C701001081
:10013000C1010010C1010010C9010010CB01001065
:10014000CD010010CD010010CD010010CD01001037
:10015000CD010010CD010010CD010010CD01001027
:10016000CD010010CD010010CD010010CD01001017
:10017000CD010010CD010010CD010010CD01001007
:10018000CD010010CD010010CD010010CD010010F7
:10019000CD010010CD010010CD010010CD010010E7
:1001A000CD010010CD010010CD010010CD010010D7
:1001B000CD010010CD010010CD010010CD010010C7
:1001C00000BE00BE00BE00BE00BE00BEEFF3058054
:1001D000103800BEF2EB887190610010B861001019
:1001E0003802001090A31AE71E481F49086006C88D
:1001F00081F3088810471D480068002801D019487D
:10020000F3E70DA40ECC002902D000F012F8F9E7B4
:100210001749184A002000E001C19142FCD116495B
:100220008847164988471649884700BEFDE701C937
:1002300001C29A42FBD37047B8610010C000002091
:10024000C8070020C068001000000420000004203F
:10025000C0680010001004200010042000000000FE
:10026000704700000000000008ED00E0000000D032
:10027000C8070020540D0020E9470010FD030010BE
:10028000E1470010F8B5C04606480749091A8B1027
:10029000C90FC91810B5491003D0044B002B00D06A
:1002A000984710BDC8070020C807002000000000C4
:1002B000054B10B5002B03D00449054800E000BFF2
:1002C000FFF7E2FF10BDC046000000000C0C00204C
:1002D000C85B001010B504001F2101F0D3F8002204
:1002E0002000002101F0E8F80021200001F0F8F8DA
:1002F00010BDC046F0B54E464546DE465746E0B511
:1003000085B080460E000092002A69DDFF22190C9C
:1003100011400191190A1140029100218946354985
:1003200004008B461A4064340392736832689D005F
:10033000ED18DB075BD45519182D24D85B461B68D4
:1003400001989A4602F0FCFD514602F0ECFD02F0E5
:1003500019FEC7B2029802F0F3FD514602F0E3FD28
:1003600002F010FEC3B21B0203983F041F4302F0C9
:10037000E7FD514602F0D7FD02F004FE4346C0B24D
:10038000AD000743EF508021454640461A4A4902D6
:1003900007683F0253680B42FCD104301761A0424A
:1003A000F6D1FA20400001F0FDFD64220021404614
:1003B00002F03EFE8021104A49022868000253687C
:1003C0000B42FCD104351061AC42F6D1FA2001F0A9
:1003D000E9FD01239C46009BE14408364B45A4D12E
:1003E00005B0F0BCBB46B246A946A046F0BDAD1A6A
:1003F0000435A1E79801002000002050F0B5DE464A
:100400004E4645465746E0B5DDB004F0EDFA04F03F
:1004100075FE1A20FFF75EFF1B20FFF75BFFCA493E
:10042000CA4804F041FD06210500072001F02AF822
:100430000123002107220093C44804F0B7FD802364
:100440005B024393EB1CEA011B031343C04A0520E4
:1004500013404493BF4B4693BF4B459302F00CF8B7
:1004600002F068FDBD4902F04AFDEC21890502F069
:1004700043FD061C02F086FD84B20023002C0DD043
:10048000200002F057FD011C301C02F032FD8721D4
:10049000C90502F048FD02F075FDC3B224041B0239
:1004A0002343AA4C2A0000212000439343AB04F0CD
:1004B000D7FD0122236805201343236001F024F8AF
:1004C000D0231B069A462023524601219362052021
:1004D000002200F0F1FF062001F016F840235246FA
:1004E000012193620620002200F0E6FF0B2001F0BC
:1004F0000BF8802352461B0153620D2001F004F8D3
:10050000802352469B015362152000F0FDFF80239B
:100510005246934C9B03536292499361200004F02E
:1005200091FC03210E2000F0ADFF03210F2000F00D
:10053000A9FF002201210E2000F0BEFF00220121B0
:100540000F2000F0B9FF3C2340228021009315A822
:100550000023019400F0A6FB002115A800F002FC86
:1005600015A800F0B9FB6422002143A802F060FD49
:100570002FAB98467C4901221800079104F0E6F859
:10058000002115A800F0EEFB0A230A22414615A817
:1005900000F058FF754B0A221900069315A81E2378
:1005A00000F050FF15A800F097FB01230493704B57
:1005B000022708936F4B09936F4B0A936F4B0B9372
:1005C0006F4B0C936F4B0D936F4B9B466F4B5D4680
:1005D00005936F4B0E936F4B0F93002F00DD28E2B6
:1005E000049B0621581E02F0CDF8089B89005B5839
:1005F0003A001BA943A8FFF77DFE6422002143A80F
:1006000002F016FD80221924504952024B6818004E
:1006100010401342FAD1013C0861002CF6D1002FA2
:1006200000DC55E10023039302331E0002930D9B6F
:10063000BB469946534640225B681A4200D14AE2C3
:100640004B4618688023544C5B0122685340E022DB
:10065000D2011340514A13600422514B1A60FC32FC
:1006600023681342FCD062684300EA52052101303E
:1006700002F088F86A882B882F899B18AA880800BE
:10068000D218EB889B18E022FF182368D201134090
:10069000424A802413600422414B64001A603E4A9F
:1006A00013682342FCD052684300EA52052101300E
:1006B00002F068F84B4619606B882A88D218AB881C
:1006C0009B18EA88D2182B899B18364A974200D982
:1006D000C2E1934200D8DAE10136052E00D0D6E11E
:1006E0006422002143A802F0A3FC1424013E029BD3
:1006F0009C4664449C23A4005B00E4180EAB9C461B
:10070000059B29491868644402F00DFC02F03AFC8C
:100710008021C0B203021B181B021B18643C0B4A49
:10072000236043A85CAF49020468240253680B426B
:10073000FCD1043014618742F6D153465A68202315
:10074000134200D1A8E131E0285D001000002050E4
:10075000FFFFFF9F001C0020000006700024F44AE9
:1007600058020020801A0600C85B0010D05B001001
:100770009C010020DC5B0010E45B0010F45B0010C7
:10078000FC5B0010040C0020340C002098010020B9
:10079000085C0010105C001000C0044000D0044051
:1007A00000E00440D858000000007F43322001F0F0
:1007B000F9FB039B5B4500DA3CE743461A681B9B49
:1007C0005F469A4200D0EBE143461C9A5B689A422E
:1007D00000D0E5E1012F7BD043469A681D9B9A42E9
:1007E00000D0DDE143461E9ADB689A4200D0D7E193
:1007F000022F6DD043461F9A1B699A4200D0CFE169
:1008000043465A69209B9A4200D0C9E1032F5FD02A
:1008100043469A69219B9A4200D0C1E14346229AFD
:10082000DB699A4200D0BBE1042F51D043461A6ADB
:10083000239B9A4200D0B3E14346249A5B6A9A42D2
:1008400000D0ADE1052F43D04346259A9B6A9A42DA
:1008500000D0A5E14346269ADB6A9A4200D09FE188
:10086000062F35D04346279A1B6B9A4200D097E15A
:100870004346289A5B6B9A4200D091E1072F27D01C
:100880004346299A9B6B9A4200D089E143462A9AB3
:10089000DB6B9A4200D083E1082F19D043462B9A94
:1008A0001B6C9A4200D07BE143462C9A5B6C9A42C7
:1008B00000D075E1092F0BD043469A6C2D9B9A42CC
:1008C00000D06DE14346DA6C2E9B9A4200D067E17E
:1008D000802352461B015361002115A800F042FA03
:1008E0000A230A22099915A800F0ACFD1E230A224A
:1008F0000A9915A800F0A6FD15A800F0EDF9FA2355
:10090000DD4ADB00D362DD4B0121936398239146DE
:10091000DB4A9B0393461268DA4E53401B0CDA4ABB
:100920001B0413603368D94C9943152021600421BE
:1009300000F0A8FD9620400001F034FB012180204A
:100940005246336880030B4023609061322001F0EF
:1009500029FBFA234A46DB00D362CD4B0121936386
:100960005A46F02312685B0353401B0CC64A1B0413
:1009700013603368152099432160042100F082FD43
:100980009620400001F00EFB012180205246336882
:1009900080030B4023609061322001F003FBFA23B7
:1009A0004A46DB00D362BB4B042193635B461A6863
:1009B000C8235B0353401B0CB34A1B041360012282
:1009C000336815209A43226000F05CFDC820400087
:1009D00001F0E8FA012180205246336880030B4081
:1009E00023609061FA20800001F0DCFA80235246F7
:1009F0001B019361049B079901331A0010A804930B
:100A000003F0A4FE002115A800F0ACF90A230A2285
:100A100010A915A800F016FD15A81E230A22069994
:100A200000F010FD013715A800F056F9002F00DC8A
:100A3000D6E500261BAC04F0CFFE052101F0A2FE96
:100A4000216004F0C9FE052101F09CFE01366160C1
:100A50000834BE42EFD1C3E50299013902919342B5
:100A600031D84B1C5A1E934101275B42B4001940F8
:100A70003740A41902916422002143A802F0D8FA59
:100A8000002F00D133E6029BE41A043432E601273A
:100A9000B4003740A419EEE740460399029CCA000F
:100AA0008450424456604A1C039252465268134294
:100AB00000D07BE620240A2001F074FA53465B68DC
:100AC0001C42F8D072E64B1C5A1E93415B421940FF
:100AD0000136029101E60021243243A802F0A8FA6F
:100AE000802219246C4952024B68180010401342AE
:100AF000FAD1013C0861002CF6D1002115A800F0C4
:100B000031F90A230A220B9915A800F09BFC1E2339
:100B10000A220C9915A800F095FC15A800F0DCF845
:100B200053465B6840345B0606D40A2001F03AFA6B
:100B300053465B681C42F8D053465B6840245B0612
:100B400006D50A2001F02EFA53465B681C42F8D104
:100B500053465B6840245B0606D40A2001F022FA63
:100B600053465B681C42F8D00122079910A803F095
:100B7000EDFD002115A800F0F5F80A230A2210A9BE
:100B800015A800F05FFC1E230A22069915A800F0A4
:100B900059FC15A800F0A0F801230227049348E7A8
:100BA000802352469B015361002115A800F0DAF81A
:100BB0000A230A220E9915A800F044FC1E230A22DB
:100BC0000F9915A800F03EFC15A800F085F8FA2250
:100BD000294F324BD200FA62BB63842328499B031E
:100BE0000A688946534028491B0C1B040B608B463E
:100BF0000121244E254C336815209943216004219E
:100C000000F040FCC82001F0CDF9012133688020BC
:100C10000B402360534680039861322001F0C2F9F3
:100C2000FA221F4BD200FA624A46BB63C8231268FD
:100C30009B0353405A461B0C1B041360012233686C
:100C400004219A432260152000F01CFC96204000ED
:100C500001F0A8F9012180205246336880030B403F
:100C600023609061FA20800001F09CF980235246B5
:100C70009B01936178E7C04600000540E80E000044
:100C80003400054028000540341005402810054078
:100C9000D60B0000F709000000002050050D0000F1
:100CA0008813000070B50400D00804AB05041B785D
:100CB000484312020A432A431B061A43059B01308C
:100CC000636001212260206102F096F940230370E5
:100CD0004033E060237570BD70B506000025212308
:100CE000040082B01436C1784375320040681F3B5F
:100CF000009504F0CFF8E178320060686575022352
:100D0000009504F0C7F82378E178013B6375320061
:100D100060680223009504F0BDF82223E178637532
:100D200032006068203B009504F0B4F8E1783200AE
:100D3000606865750223009504F0ACF8A378E1784B
:100D4000013B6375320060680223009504F0A2F84D
:100D50002369E268E1786068009504F09BF802B0CE
:100D600070BDC0464378F0B5002B20D00723002685
:100D70009C460127047800291FD1002C17D0634618
:100D80003D0033409D40ED430023F208EDB20132B7
:100D9000C4680133A15CDBB22940A1540478083255
:100DA0009C42F5D801364378F6B2B342E5D8F0BD9F
:100DB00001364378F6B2B342F9D9002CF7D0634636
:100DC0003D0033409D400023F208EDB20132C4687B
:100DD0000133A15CDBB22943A154047808329C4260
:100DE000F5D8E5E7F0B55746DE464E464546E0B550
:100DF0000F0041399DB0192900D904E1D908072411
:100E000001311791012125000E001D40AE40350033
:100E1000F643EDB207955D1CF6B2EDB20696EE080C
:100E2000013600960E002540AE403500F643EDB287
:100E300009959D1CF6B2EDB20896EE08013616969D
:100E40000E002540AE403500F643EDB20B95DD1C9B
:100E5000F6B2EDB20A96EE08013601960E00254074
:100E6000AE403500F643EDB20D951D1DF6B2EDB264
:100E70000C96EE08013603960E002540AE40350074
:100E8000F643EDB20F955D1DF6B2EDB20E96EE088B
:100E9000013602960E002540AE403500F643EDB215
:100EA00011959D1DF6B2EDB21096EE08013604962E
:100EB0000E002540AE400733DBB235001C40F64340
:100EC000A140F6B21296DE08CB43EDB2DBB2139529
:100ED0001493751CCBB2363FA8461593FD00C54B45
:100EE000ADB2ED1813000833DBB29C46012317990D
:100EF000169E05930133E34699468A46B44654E06C
:100F0000069F3C403470009CC7681C193E193C5D2C
:100F10004F460F4200D073E0089F3C403470644657
:100F2000C7681C193E193C5D04270F4265D10A9F12
:100F30003C403470019CC7681C193E193C5D082771
:100F40000F4257D10C9F3C403470039CC7681C195A
:100F50003E193C5D10270F4249D10E9F3C40347032
:100F6000029CC7681C193E193C5D20270F423BD1EB
:100F7000109F3C403470049CC7681C193E193C5DAE
:100F800040270F422DD1129F3C403470C468434427
:100F9000E618C909E35C002914D1149901320B4009
:100FA000D2B2337001355A4514D05446C768D300C5
:100FB0001C193E1929783C5D059F0F42A0D0079F60
:100FC0003C439FE7159901320B43D2B23370013590
:100FD0005A45EAD11DB0F0BCBB46B246A946A04670
:100FE000F0BD139F3C43D0E7119F3C43C2E70F9FE6
:100FF0003C43B4E70D9F3C43A6E70B9F3C4398E777
:10100000099F3C438AE739003039092900D9F3E0C8
:10101000D908072401310491012125000E001D404B
:10102000AE403500F643EDB207955D1CF6B2EDB269
:101030000696EE08013616960E002540AE403500A5
:10104000F643EDB209959D1CF6B2EDB20896EE0896
:10105000013603960E002540AE403500F643EDB252
:101060000B95DD1CF6B2EDB20A96EE08013602963B
:101070000E002540AE403500F643EDB20D951D1D26
:10108000F6B2EDB20C96EE08013605960E0025403C
:10109000AE403500F643EDB20F955D1DF6B2EDB2F0
:1010A0000E96EE08013600960E002540AE40350043
:1010B000F643EDB211959D1DF6B2EDB21096EE0815
:1010C000013601960E002540AE400733DBB23500F5
:1010D0001C40A140F643EDB21395DD08CB43F6B2B8
:1010E00012961600DBB201351493CBB20121AC4647
:1010F0002F3F1593FD003F4B0836ADB2ED18F3B20C
:10110000169E89460131E3468846B2469C4662E017
:10111000069F3C4034705446C7681C19A4B23E195F
:101120003C5D47460F4200D072E1089F3C4034705E
:10113000039CC7681C19A4B23E193C5D04270F42EA
:1011400000D062E10A9F3C403470029CC7681C19C1
:10115000A4B23E193C5D08270F4200D052E10C9F1B
:101160003C403470059CC7681C19A4B23E193C5D14
:1011700010270F4200D042E10E9F3C403470009C8B
:10118000C7681C19A4B23E193C5D20270F4200D04D
:1011900032E1109F3C403470019CC6681C19A4B217
:1011A0003719345D40260E4200D022E1129E3440B1
:1011B0003C70C4685B449BB2E718C909E35C002932
:1011C00000D013E114990B400132D2B23B700135CB
:1011D000624500D1FEE6049CD300C7681C19A4B286
:1011E0003E193C5D4F4629780F4291D0079F3C4302
:1011F00090E7C046385D001039006139192900D9DF
:10120000E8E63C3F8E49FE00B6B28A46895D072477
:101210008C46D90801318846012127000D001F4066
:10122000BD402F00ED43EDB20C95FDB20D9535009C
:1012300055446E78B1465E1CF6B2F7080137029746
:101240000F002640B7403E00FF43F6B20F96AE783F
:10125000FFB205969E1CF6B20E97F7080137049769
:101260000F002640B7403E00FF43F6B21196EE78DD
:10127000FFB20696DE1CF6B21097F708013700970A
:101280000F002640B7403E00FF43F6B213962E797A
:10129000FFB207961E1DF6B21297F70801370397A3
:1012A0000F002640B7403E00FF43F6B215966E7918
:1012B000FFB208965E1DF6B21497F70801370A9739
:1012C0000F002640B7403E00FF43F6B21796AE79B6
:1012D000FFB209969E1DF6B21697F70801370197DF
:1012E0000F002640B7400733DBB21C403E00FF43EF
:1012F000A140FFB21897DF08CB43F6B2DBB21996D4
:10130000ED791A93CBB21B93D31DCB460721012451
:10131000A94601370B9359E00C9E32402A70029A7D
:10132000C6689A18B518B25C5E460E41344200D0C9
:1013300083E00E9E32402A70049AC6689A18B51847
:10134000B25C059E0E41344274D1109E32402A7028
:10135000009AC6689A18B518B25C069E0E413442CF
:1013600065D1129E32402A70039AC6689A18B51841
:10137000B25C079E0E41344256D1149E32402A7010
:101380000A9AC6689A18B518B25C089E0E41344293
:1013900047D1169E32402A70019AC6689A18B5182D
:1013A000B25C099E0E41344238D1189E32402A70F8
:1013B000C568DB19EA18EB5C4D460D412C422AD179
:1013C0001A9D2B401370013900D203E642460B9B55
:1013D000C6685B1ADBB2DB009A18B518B25C6646C9
:1013E0000E41344298D00D9E324397E715990B4336
:1013F000EAE6139E3443DBE6119F3C43CBE60F9FA6
:101400003C43BBE60D9F3C43ABE60B9F3C439BE656
:10141000099F3C438BE61B9D2B43D3E7199E324328
:10142000C5E7179E3243B6E7159E3243A7E7139EE2
:10143000324398E7119E324389E70F9E32437AE7A1
:10144000385D0010F8B507000E0014001D0014E010
:10145000220008342B003800E4B2FFF7C3FC22005E
:101460003B78083201369A4202DB00240835EDB29F
:101470002B007A780833934202DA31780029E7D1D9
:10148000F8BDC046094A83009A1810B51468402276
:10149000544080322240064CC000A44663441A6087
:1014A000044B9C466044416010BDC04604C00140EE
:1014B00004D0014000400140074B8000C3181B6866
:1014C000C90092000A435A400C231340034A944631
:1014D000604403607047C04604C0014004D001402E
:1014E0008000002905D0064B9C46402360440360E1
:1014F0007047044B9C46402360440360F8E7C046B5
:1015000004E0014004F001400123D0228340120690
:1015100093629361094A83009A18116840225140EE
:1015200080320A400649C0008C4663441A60054B6D
:101530009C460523604443607047C04604C0014098
:1015400004D00140004001400FB400B5084883B00A
:1015500003F09CFA049B002B07D005A91800019109
:1015600003F00AF9034803F091FA012003F01CF993
:10157000385C0010485C0010EFF3108072B6034A2C
:101580001368002BFCD0BFF35F8F70472C0100D095
:10159000BFF35F8F0022024B1A6080F31088704700
:1015A0002C0100D070B5EFF3108C72B60D4D2B6886
:1015B000002BFCD0BFF35F8F0724CB08C618C05C9C
:1015C00001230C40A3401C000440034207D11843F0
:1015D0003070BFF35F8F2C608CF3108870BD1000EB
:1015E000FFF7B2FF2C0100D0044A1078431CDBB295
:1015F000172B00D9102313707047C046B401002088
:101600000021044B044ABFF35F8F02C39342FAD117
:101610007047C046000100D0800100D0054B064A4B
:101620001360064A136053609360D3601361536183
:10163000936170478080808000E400E004E400E073
:101640001F2318401E3B8340002905D0C021044AB7
:101650004900535013607047802201498B50FAE7CC
:1016600000E100E070B50D00EFF3108672B60F4A8E
:101670001368002BFCD0BFF35F8F0D4B10309B68BD
:1016800084001B590B4A934203D09D4201D000F0C5
:101690009BFF074B9B681D51BFF35F8FBFF35F8FAD
:1016A0000022024B1A6086F3108870BD240100D01E
:1016B00000ED00E0CD010010F0B5DE4657464E4685
:1016C0004546E0B50C0083B0EFF3108872B6634A6C
:1016D0001368002BFCD0BFF35F8F614B61499A68A0
:1016E000030010339F00D55900938D4243D0A5428B
:1016F00054D05D4EAA1B2F2A3DD85C4B9C461B68DC
:101700009A4601231A0099468240534613401F22ED
:1017100001934B46024093409A46802263465046CE
:101720009850BFF35F8FEFF305839B46002B37D0B4
:10173000009B5B4501D000F047FF2A004B469A43CF
:101740009068844208D177E04B005B189B00F31847
:101750009868844236D01A00062151560029F3DADF
:10176000844255D0019B002B27D0C02251463F4BCD
:101770005200995019603A4B9B68DD51BFF35F8F5F
:10178000BFF35F8F0022354B1A6088F3108803B0D7
:10179000F0BCBB46B246A946A046F0BD0D00EAE744
:1017A0002A004B469A4390688442D5D106201056B1
:1017B000130000280ADA0D0032E0802351462B4A3C
:1017C000D150D8E706201856002822DB4200111815
:1017D000890074188946A1689960E179D971062158
:1017E00061569971002925DBA488F11A6405241536
:1017F0004C440919E0240905490D2402214399802C
:1018000013181B4A9B001178F31899711070A9E7FF
:1018100013005946002914D1FF3191711549918067
:1018200013490A789A71144A9B1B5B415A43120D63
:101830000A7097E71149E2E70620105613000028C6
:10184000C4DA0F4A0F49D21A083A5002400D014338
:1018500099800D4952080A43DA8083E7240100D0B9
:1018600000ED00E0CD010010B801002000E100E033
:10187000500D002001BDFFFFAAAA000001BD00001D
:10188000F201002000F0FFFF00F8FFFF70B5012417
:101890000443EFF30581EFF3108C72B6214A13680D
:1018A000002BFCD0BFF35F8F1F4B05001F4AED1AC2
:1018B0006D416A43120D1E4D8900AE6852B27658D2
:1018C000A6421CD00621595691421CD012215956CD
:1018D000914222D01E215956914220D02A21595698
:1018E0000324914210D0134B19781A708171BFF301
:1018F0005F8F00220B4B1A608CF3108870BDAB68B1
:101900000D4C5C50EFE700246100091989005B1859
:10191000FF21997109499980E5E70124F4E7022440
:10192000F2E7C046240100D0B8010020AAAA0000B6
:1019300000ED00E0500D0020CD01001001BDFFFFC3
:10194000024B9C46614489000160704740000034AE
:1019500070B5114C114DAC420FD2FF262368002BFD
:101960000CD0FFF741FE01002000FFF7E9FFA68041
:10197000BFF35F8F0834AC42F0D370BDFFF734FE85
:1019800001002000FFF7DCFF2671BFF35F8F0834F2
:10199000AC42E3D3F1E7C046C0070020C8070020EF
:1019A0000A4B1968EFF3108072B60A68002AFCD05F
:1019B000BFF35F8F1B68BFF35F8F00221A6080F355
:1019C000108840BF002000217047C046440D002011
:1019D000F0B5DE4657464E464546E0B583B0EFF3D8
:1019E000058203231340B54A99005258009190464E
:1019F00001229A40B24B93461A60B24B01932EE0FB
:101A000043469B881BB2002B00DB99E043469B7941
:101A1000002B00D0DDE0434608241C5F002C00DAD8
:101A200006E143465A6963001B19DB00D3189D6821
:101A3000DC686B1C00D107E1A34B00999C46614414
:101A40009A6A0B69A81A9B1A984200D20D619E48A7
:101A500000F03EFB8C4200DDEAE000D126E15B466F
:101A600099484363434608229B5E9946002BC7DB97
:101A7000424652695B0092464B44DB009A4453460F
:101A80009E68DF6800F024FB8F42B9DC00D100E1E2
:101A9000002F00DAE1E05246534654691B69019A6F
:101AA000934200D1D4E0414652460820085E528855
:101AB000000421001043984704000D0023002B432D
:101AC00000D1CAE0002D00DBE7E030003900001B48
:101AD000A94153469860D96000229A5E002A8FDBA4
:101AE00043465D6953009C18E4002C19A768E4681C
:101AF0008C4200DD84E702D1874200D980E7464668
:101B0000328108360DE08C4200D1D3E01E00002364
:101B1000F25E002A0ADB53009C18E4002C19A76827
:101B2000E4689B18DB00EB188C42ECDD53461A800E
:101B30004B46338043469B881BB2002B00DA65E797
:101B400043461A69EFF3108172B61368002BFCD07C
:101B5000BFF35F8F43469E88012342465B429380DA
:101B600036B21369BFF35F8F00221A6081F31088C9
:101B7000002E00DA4AE743465D69083342469C4638
:101B80007700BF19FF00EF19BB686046984608232D
:101B9000D15E9246FC68002907DA0EE0A2424FD0DF
:101BA00018000023C15E002906DB4B005B18DB0038
:101BB000EB18DA68A242F1DD524606800023FE5E91
:101BC0003980002EDCDA904643469B79002B00D109
:101BD00021E7002342469371434646460821595E59
:101BE00008364B1C24D047468946556902E006005A
:101BF0004B1C18D04B005B18DB00E8180A008C4621
:101C0000E95E43881BB2002BF1DA01235B42DC174B
:101C10008360C4604A4503D031803B8903803A81A8
:101C2000E1464B1CE6D14C46B846002C00DBF8E6FA
:101C300040BF03B0F0BCBB46B246A946A046F0BDCB
:101C40009A684245ACD9B7E7631C00D0F4E6FEE6DB
:101C5000200023699847002825D1534642461B8817
:101C600013811269EFF3108372B611680029FCD05A
:101C7000BFF35F8F4246514652880A80424649462A
:101C800051801269BFF35F8F0021116083F31088C8
:101C9000B6E6864200D8FBE6B2E60B4800F018FA3A
:101CA0000019694115E76568246807E7854200D88F
:101CB000D5E6BDE7874200D828E737E7240C0020A7
:101CC0003C700540D11900100040054070B52E4C05
:101CD0002569002D04D00A212C48FFF731FE70BD84
:101CE0002B4E0321300000F0E9F9E660FFF77CFCA1
:101CF000284B03229C46D02322701B061B6801211F
:101D00006370254B6044A3600F2380002061022094
:101D1000638063694942A180198002311986473185
:101D20001D83585218315A5275325C399952183203
:101D300001319952183201319952183201319952B8
:101D4000083518329D520231183299521832013139
:101D50009952183201319952183201319952183280
:101D6000013199521832013199520C4B0C49DC6007
:101D700001303562FFF776FC01210320FFF760FC9C
:101D8000084B1D60A7E7C04600020020440D00205C
:101D90000040054040000034FFFF1000240C0020EC
:101DA000D11900103860054070B501000469EFF3E7
:101DB000108C72B620680028FCD0BFF35F8F022021
:101DC0000D5E4C6968004019C0002418002D37DBF7
:101DD000208848800869BFF35F8F002606608CF377
:101DE0001088E36063880498013320615B040598E0
:101DF0005B0CA26060611A1C002B1FD093B22804F8
:101E0000628018430A69EFF3108C72B61368002BD6
:101E1000FCD0BFF35F8F8B8823808D800B69BFF36D
:101E20005F8F00221A608CF310880B7801329A4081
:101E3000CB6808498C4663441A6070BD0122DDE717
:101E40000B69BFF35F8F00221A608CF310880120AA
:101E50004042F2E73C20000010B543890A14934247
:101E60001ADD53009B184269DB00D3180469EFF3B5
:101E7000108C72B62268002AFCD0BFF35F8F5A889C
:101E8000090494B2090C8A4208D00369BFF35F8F3A
:101E900000221A608CF31088002010BD80221202EC
:101EA00014435C80012302698371BFF35F8F0021BB
:101EB00011608CF31088044902788C469340C26804
:101EC000012062441360E8E73C200000F0B5040004
:101ED0000D0006267642F717C64636196F4100B543
:101EE00082B08F4214D811D000F0FAF832003B00D3
:101EF000121A8B41002B17DC002B47D02000290041
:101F000000F02CF902B080BCB846F0BD8642EBD997
:101F10000022002316001F0000F0E2F832003B0010
:101F2000121A8B41002BE7DD00F0DAF832003B009B
:101F3000121A8B41002B0ADB00230193154B320050
:101F4000009315483B00FFF72FFF0028D6DB002346
:101F50009C46B046114A124E736A9F4204D8B16A39
:101F60008845CBD99F42C9D11168EFF3108072B672
:101F70000B68002BFCD0BFF35F8F1368BFF35F8F3C
:101F80006146196080F3108820BFE5E7002AB5D0CC
:101F9000CAE7C046A119001000020020440D00202D
:101FA0000040054070B5060000F09AF8FA220400DF
:101FB0000D00002330000021920000F07DFF8023FF
:101FC000001969411B06994202D30120024940428F
:101FD000FFF77CFF70BDC046FFFFFF7FF0B5CE4628
:101FE000474680B504000D0083B0EFF305878846AF
:101FF000002F3ED12E4EA1463378F06804339B006B
:10200000816A1B58601A5B1A98420ED320BF294977
:1020100000204B6AAB4203D38A6A0130944231D824
:1020200003B0C0BCB946B046F0BD00F059F822007C
:102030002B00121A8B41002B2FDB1F4B2200009329
:1020400030002B000197FFF7AFFE011E25DD194B75
:102050005A6AAA421BD220BF3000FFF7FDFE154A84
:102060000020536A4345DBD3926A01309145D7D9AA
:1020700008E0104900204B6AAB42D1D38A6A013094
:10208000A242CDD25B1B5A1E9341D8B2C8E79B6ACD
:102090009C42E1D9AA42DFD1DDE7064A0020536A1B
:1020A0004345BDD3926A01209145B9D9EAE7C046BC
:1020B0000002002000400540A119001010B5024A9E
:1020C0000248FFF76FFA10BD4C5C0010C80B0020EF
:1020D0000300416A0A00986A596A8A42FAD1704735
:1020E000034B596A0A00986A596A9142FAD17047BB
:1020F0000040054070B504000D00174A536A1900EE
:10210000966A536A8B42FAD13000190024184D4167
:10211000AB4216D813D0104A2B00526A954203D90D
:102120000D494A6A9A42FCD39A4207D10A4A02E010
:10213000516A994202D1916AA142F9D370BDA64277
:10214000E9D9054B5B6A1C005A1CEFD0012301241E
:102150006442E5175B42E3E700400540064A536AE4
:102160009942FCD807D1044B02E05A6A914202D14D
:102170009A6A8242F9D3704700400540F8B50400DE
:1021800006200D0000F078F9002844D0374B38497C
:10219000E3185A1E93418022120494465B429B0D21
:1021A000344A9B0563441360334A136018000A687D
:1021B0009043FBD12D4B314AE31859424B418021CA
:1021C0005B0049000620995200F056F92900C00032
:1021D00000F000FB0130C3091ED1402701226262DA
:1021E000A362266BF30722D4E36A254B0620E51889
:1021F00000232B60266300F03FF93900800000F0D7
:10220000E9FA7023E26A5A400E3313402B601D4BEB
:1022100023630323A364F8BD1B4A93421ED9002302
:102220001A4A1B4F6262A362266BF307DCD5194B77
:10223000144AE3181A60656AA36A0620AD01ED1816
:1022400000F01AF9144900F0C5FAAD0201002800A7
:1022500000F0C0FA0021FFF74DFFC5E74006800EF1
:102260009F011A003F180300B9E7C0460080FCBF79
:1022700008C0004000E0004000F00040480D002091
:102280002C10000001030000FEFF0000FFFF000013
:10229000C0FF3F00303000004E0E0000F8B5DE46B3
:1022A0004E4657464546E0B58B4605000A9918004C
:1022B000160000F08FFA0A9B6C001F02324B641963
:1022C0009C46A4006444636881469F4200D96760CD
:1022D0002B1FDBB29846012B30D9C02380229B01F3
:1022E000E31812011A60294BAD0059599A4600298A
:1022F0001BD17301E026226853401E4080234246D2
:102300005B01E3181E60012A30D9802380229B01E3
:10231000E31812011A6053464A4667605A51F0BCEE
:10232000BB46B246A946A046F8BD586900F052FA2D
:10233000013043001B18033BFDD2DAE75B46012B5B
:10234000CBD1C02303229B01E3181A60023AA36891
:102350001A42FCD07301E0262268AD0053401E40B3
:1023600080230A4A5B019246E3181E605A462168A0
:10237000514003220A401A6001225B469A40A3683A
:102380001A42FCD0C1E7C04600800040CC0B0020C0
:10239000F0B546464F46D646C0B51F00344B440004
:1023A0009C462418A4006444636888461600FF2BEA
:1023B00002D880235B006360031FDBB29A46012BC7
:1023C00030D9C02380229B01E31812011A60294BE7
:1023D00085005959994600291BD17301E0262268CE
:1023E00053401E40802352465B01E3181E60012AC1
:1023F00030D9802380229B01E31812011A608023C8
:102400005B0063604B465F51E0BCBA46B146A846EC
:10241000F0BD586900F0DEF9013043001B18033BA2
:10242000FDD2DAE74346012BCBD1C02303229B0127
:10243000E3181A60023AA3681A42FCD07301E0263E
:102440002268850053401E4080230A4A5B01914662
:10245000E3181E6042462168514003220A401A6078
:10246000012342469340A2681342FCD0C1E7C04614
:1024700000800040CC0B0020014B8000C05870470A
:10248000CC0B0020F8B5040021481E0017000D00F9
:1024900000F0A0F90100380000F09CF9069B36041A
:1024A0001B031E432368002B20DB1A4B1A49E31839
:1024B0005A1E93418022920194465B421B0B174A9D
:1024C0001B0363441360164A13601F000A68974396
:1024D000FBD1144B2560E2182123A0601360236810
:1024E000002BFCDA0823E6601360F8BD3F23226866
:1024F0001340AB42D9D1A3681B051B0D8342D4D135
:10250000EE22E368D2021340B342CED1EDE7C046DB
:10251000001BB7000040FDBF08C0004000E00040C5
:1025200000F00040043000008023024A9B000B436F
:10253000D362704700800540142310B5010018884D
:1025400004331B88984710BD162310B50100188866
:1025500002331B88984710BDF8B54746CE4680B574
:102560000F1E19D0142399460433040000250126B8
:1025700098464B461888434621681B88984701C4F3
:10258000431E9841013540420640AF42F1D1300030
:10259000C0BCB946B046F8BD0126F8E7AA23064AF2
:1025A0001B0113602F230549D360054B1960536845
:1025B000002BFCDA7047C0460040024000B0FA0031
:1025C000006002407047C04610B50148FEF7BCFFEE
:1025D000705C001070B5074D074EB54209D200245B
:1025E000013E761BB60808CD984723000134B3425C
:1025F000F9D170BD885B0010C45B0010054B064A22
:1026000006491A60064A074B1A6010000B68984387
:10261000FBD1704700E00040BFCDFBFE08C000408A
:10262000FE7F3C0000F00040044BDB6C002B03D12C
:102630008022034BD2021A607047C046000011503E
:102640004C201150044A054B1A60054A1368DB01FF
:102650008033FBD17047C046FFFFFF0100F0004010
:1026600008C000404022034B9A675A671A67DA662F
:102670007047C04600F0014010B5FEF7C1FF10BD25
:1026800070B5044D044CA968C022200000F0D6FCAF
:10269000AC6070BD00ED00E000000020002310B52C
:1026A000294C82B0A367FFF779FF0122274B1A60FC
:1026B000636C012BFCD10322254B1A60224A936BD9
:1026C000012BFCD1013300930121224A224804331B
:1026D000FFF7D8FE052301210093204A2048FFF789
:1026E000D1FE0022022104201E4BFFF751FE0022E2
:1026F000012105201C4BFFF74BFE00220021072083
:102700001A4BFFF745FE002200210820174BFFF768
:102710003FFE8023DB000093002200210920134BA1
:10272000FFF7BCFD0022104B00210620FFF730FE12
:102730000420FFF7A1FE0E4900F04CF80100002034
:10274000FFF7F2FE02B010BD008000403CB0004038
:1027500030B00040002F685900800240008C86474E
:1027600000C00240001BB70040597307006CDC0238
:1027700040420F0001480421014B1847200200206D
:1027800059250010124A936F9B0815D29066D166A6
:10279000002905D0FFE7FFE7FFE7516F106F704793
:1027A00004B580210906C2175140002800D0C84353
:1027B00003F0DAF9002104BDF0B5146E556E576FC1
:1027C000166FFFF7E3FF1466556657671667F0BD8F
:1027D000000000D0114A936F9B0813D21066516617
:1027E000002905D0FFE7FFE7FFE7516F106F704743
:1027F00004B5002801D00020C04303F0B5F9002142
:1028000004BDC046F0B5146E556E576F166FFFF7D6
:10281000E5FF1466556657671667F0BD000000D0E7
:1028200094464A4A926F9208624601D228E0C04616
:10283000F0B5464E346E756E776F366F00F020F847
:102840009446424A14665566576716676246F0BD5D
:1028500094463E4A926F9208624601D254E0C046C6
:10286000F0B53A4E346E756E776F366F00F04CF8F7
:102870009446364A14665566576716676246F0BD39
:10288000002B24DB11D000293EDA00B5C9434042B9
:1028900000D1013100F038F8C943404200D1013184
:1028A000DB43524200D1013300BD002AEBD10028A6
:1028B00001D1002905D00020C90FC90701D1C043AB
:1028C000410800B503F048F90022002300BD00B51F
:1028D00000290ADBDB43524200D1013300F014F837
:1028E000C943404200D1013100BDC943404200D13B
:1028F0000131DB43524200D1013300F005F8DB43E4
:10290000524200D1013300BD002923D1002B18D140
:10291000002A0CD0BC460D4F38667A660021002391
:10292000FFE7FFE7FFE77A6F386F674670470028D9
:1029300001D00748010000B503F00EF90022002382
:1029400000BD02000B00002000217047000000D0F5
:10295000FFFFFFFF002B00D0BFE0130C28D1002A9F
:10296000E7D080B4114F39667A66FFE7FFE730B4ED
:10297000040C7B6F396F1B0423433B667A66FFE7C9
:10298000FFE7FFE7C04684B27B6F3D6F1B04234324
:102990003B667A66FFE7FFE7C04600232C042D0C58
:1029A0007A6F386F00196941B0BC7047000000D0E1
:1029B000F0B594460025140E01D112020835140F0B
:1029C00001D112010435940F01D192000235D40FC8
:1029D00001D152000135D40B0134254F7C66254CC2
:1029E0003C660E0C93B2FFE7FFE7FFE73C6F6643E0
:1029F000360C7703BE467343DF0B5B04C01AB94144
:102A0000130C7343DB18C91ACE086643360CB64460
:102A100093B273431F0F1B01C01AB941130C7343C8
:102A20001F0B1B05C01AB941860D8F023E4366433A
:102A3000360C092D24DB520A7243801A7703460AAA
:102A40006643360C16235B1BDE40DF40BF1964462D
:102A50006643821B7046043506330100D940A84006
:102A6000C01900D30131A24206D20023F0BD0000FC
:102A7000000000D0FFFFFFFF121B0130F3D3F1E78E
:102A800009277F1BFE406446A2B27243801A00D21F
:102A90000139220C7243130C1204821A99410B0063
:102AA0007046043513370100F940A840801900D35F
:102AB0000131002B02D1A2420AD2F0BD013000D375
:102AC0000131121BFAD2013BF8D1A24200D2F0BD73
:102AD000013000D30131121BF7E7F0B51C0C00D018
:102AE00080E00CB400251C0A04D11B02160E3343EF
:102AF000120208351C0B04D11B01160F33431201BF
:102B000004359C0B04D19B00960F33439200023591
:102B1000DC0B02D192185B4101351C00971864410F
:102B20000134464F7C66464C3C660E0CFFE7FFE7DF
:102B3000FFE7C0463C6F6643360C7703BE4697B24C
:102B40007743C01B00D20139C01B00D201399FB2AC
:102B50007743C91BC91B170C77437E04FF0B801BEF
:102B6000B941CE086643360C0C2D33DBB644120B4C
:102B70001F053A431B0B97B27743C01B00D20139A4
:102B80009FB27743C91B170C77433E043F0C801B51
:102B9000B941860D8F023E43664329277F1BFE40C5
:102BA0000C3D7746AF40BF1930BCA2B2ABB2724306
:102BB0007343801A9941220C7243130C1204801A39
:102BC000994102000B000137001BA941F9D2781E80
:102BD0000021F0BD0C277F1BFE4077467F0BAF40E6
:102BE000FF19E0E700245D1C07D0144F7D663966AD
:102BF000FFE7FFE7FFE7FFE73C6F95B29EB2654353
:102C00006643401BB141150C1E0C654366433604F8
:102C10002F0C3E432D04401BB141994204D20200C7
:102C20000B0020000021F0BD01D19042F7D3801AA3
:102C3000994101349942F2D3F6E70000000000D038
:102C4000FFFFFFFF48404140484018B4134B5B680A
:102C5000019308BD18B4114B1B68019308BD94463D
:102C60000F4A926F920805D2624618B40B4BDB688C
:102C7000019308BD0A4AF0B5146E556E576F166F72
:102C80006246FFF7F2FF064A1466556657671667F5
:102C9000F0BD18B4014B9B68019308BD48090020A2
:102CA000000000D0FFB550404240504059404B40DA
:102CB000594000E0FFB5154F4C00640D03D0BC42F5
:102CC00004D10C0314D80020090D09055C00640D23
:102CD00003D0BC4204D11C030AD800221B0D1B05E3
:102CE00001264B4009D44B4003D58B4200D1824290
:102CF000FFBD9942FCD19042FFBD0B43DB1803435B
:102D00001343F5D0C9434918FFBD0000FF07000079
:102D100000B5FFF7CFFF804100BDC04600B5FFF70B
:102D2000C1FF01D9002000BD012000BD00B5FFF7A3
:102D3000B9FF804100BD012040054A00121804D8A7
:102D40005A00121801D80020704701207047000077
:102D50000021002805D17047C1174840401AFAD019
:102D6000C90713B5064B1B6898470CBC441CA2400E
:102D70001005120B0349091B09051943114310BD26
:102D8000400C00201F04000010B54C00620D802391
:102D9000D218DB00D21A5B057E2A10DD9E3A13DAC8
:102DA000CC170903490819435242D1406400013449
:102DB0001532202A05DAD0400843604310BD0020B8
:102DC00010BD0846604310BDC80FC018013810BDC3
:102DD00018B4024B5B6A019308BD0000480900204B
:102DE00010B50148FEF7B0FB7C5C0010132370B5F2
:102DF0001D78012D19D014DD1D48FFF7A5FB060035
:102E00001C48FFF7A1FB1C4C80223100200000F081
:102E100015F9022D06D01948FFF78EFB184B1860E4
:102E200070BD154C174BA364F5E7174B124C23608C
:102E30006360A360E36023616361A361E361236274
:102E40006362A362E36223636363A363E363236454
:102E50006364A364E36423656365A365E365236634
:102E60006366A366E36623676367A367E367D9E7DF
:102E70005344000053460000480900204C33000032
:102E8000400C00208D2E0010E12D001007B560468B
:102E900001880A0A0230DF2AFAD1C9B2820804D3B3
:102EA000028840880004104300E00068014A505046
:102EB000039007BD4809002051434343C9188C467D
:102EC000110C83B24B4310B4040C614392B280B234
:102ED000504362431C041B0C001910BC59411304DD
:102EE000120CC018514161447047000048404140F5
:102EF00048400E4B5B6818470C4B1B6818470C4A40
:102F0000936F9B0802D2094BDB681847F0B5146E2B
:102F1000556E576F166FFFF7F6FF054A1466556634
:102F200057671667F0BD014B9B681847440C00209B
:102F3000000000D0491A002808D108467047000058
:102F4000C10FC90700D54042002817D0F44603B48A
:102F50000B4B1B68984706BC81409E38404280312D
:102F600007D20B0607D04900490AC00510430843A1
:102F700060470130F8E7490A8902F5E77047000029
:102F8000400C0020014B5B6A18470000440C0020F5
:102F900010B50148FEF7D8FAE85C0010132310B50D
:102FA00010481C78FFF7D0FA0100012C0AD003DD8D
:102FB00080220D4800F042F80C48FFF7BDFA0C4B98
:102FC000186010BD084C5422200000F037F8220091
:102FD000084980322368002B00D1216004349442D8
:102FE000F8D1E9E753460000440C00204C330000C0
:102FF000400C0020912F001070B505000C0002F06D
:1030000099F86C43002804D0034B04199C4200D863
:1030100070BD0248FEF798FA00000420945C00108E
:1030200001480421014B18473002002059250010A7
:10303000014B1B681847000030020020014B5B6801
:1030400018470000300200209A4200D2885470478E
:103050007047C046F8B55746DE464E464546E0B591
:1030600099460A9B07009A460D9B884693460B9CFF
:103070009B073BD10C9B9C423DD21E1B0B94150021
:103080000C005E442A004B46013521002020B84741
:10309000B542F7D1A0460B9C002C20D045463619EE
:1030A0005346321B013C185D29004B46B847002CA3
:1030B000F6D12B00350098460D9B9B070FD55B463C
:1030C000EC1A0C9BA3420AD9464698462A004B4666
:1030D000310020200134B84701354445F6D328009B
:1030E000F0BCBB46B246A946A046F8BD1600150086
:1030F000002CD3D1E0E71600002CCFD11500EEE76D
:10310000F0B54F464646D646C0B584B098460EAB9D
:103110001B7894469946129B0D9C109F119E9A070E
:1031200025D4002E65D1BC4221D201221A409246FC
:10313000202C00D1E9E00C9A551E302202E0202C10
:1031400000D17BE001342A55A742F8D85246002A24
:103150000DD0B4420BD20C9A551E3022202C02D135
:1031600071E0202C2DD001342A55B442F9D1DA0671
:103170003CD55A052ED4002C28D10F9A102A00D104
:10318000B6E0022A00D1BCE030220C9C227001245F
:103190004A46002A65D15A0700D499E02B220C9D9B
:1031A0002A55013403930C9B6246009302964346D2
:1031B0000194FFF74FFF04B0E0BCBA46B146A84601
:1031C000F0BD2024DA06EDD55A0503D4A74266D017
:1031D000B44264D00F9A102A71D0022A57D0202C02
:1031E000E0D02200013430250C9FBD54202CD9D0D2
:1031F000CEE7012215001D40AA461A4236D04A46A3
:10320000002A4AD10C321A4247D1BC42A1D2202C0A
:1032100091D1202E17D82024DA06C3D55A051BD405
:10322000202F01D0202ED5D11F220F9D102D6FD021
:10323000022DD8D162250C9FBD54D0E75246002AFA
:1032400079D0202EBDD92024DA06ABD55A0503D477
:10325000202FE9D0202EE7D00F9A102AA2D12024C7
:10326000A0E72D220C9D2A5501349BE7BC4200D3D8
:103270007DE7202C00D05EE7DA06F0D55A05EED4C3
:10328000202F62D0202EEAD134001F22CDE7202C3F
:1032900000D187E722000134CCE7013EB5E7621E8A
:1032A000012CC2D10F9A102A00D06AE79A063BD5AA
:1032B00058220C9C2270283A6270022468E79A0611
:1032C0000ED4202CCBD078220C9D2A55013486E7D1
:1032D0001A0700D466E720220C9D2A55013461E7C5
:1032E000202CBCD058250C9A12191570013476E7A1
:1032F0009A0608D558220C9C227030226270022453
:1033000046E76032F7E77822F5E7002A83D1B3E792
:10331000A21E013C9D0603D478250C9FBD5460E796
:1033200058250C9FBD545CE778220C9C2270483ACB
:10333000627002242CE7DA0600D433E75A058BD4F6
:10334000202F00D044E71F226FE73C001F226CE7CC
:1033500010B5002800D110BD01F04CFBFBE7C046C2
:10336000F0B557464E464546DE46E0B599B0824632
:10337000894690460893229A239B10001900FFF774
:10338000DAFC002800D0CDE0229823990122D94B05
:103390005242FFF7CBFC002800D0C3E022982399CB
:1033A0000122D54B5242FFF7B3FC002800D0B9E010
:1033B0002298239900220023FFF7AAFC002800D0BE
:1033C000F1E1229E239F8023269ADB001A400D9272
:1033D000269A1A4201D1062324938023269A1B01A0
:1033E0001A403B0093460996334300D0B3E0002ACD
:1033F00000D0C2E1002300240A930B94002304258B
:103400000993259B0024AB4200D95C1B0223269A1A
:103410001A400C92269A134203D06B426B415B42D6
:103420001C40099B002B07D00A9A0B9B30003900E7
:10343000FFF715FC06000F002298239900220023B5
:10344000FFF766FC002803D0802109067B181F00C7
:10345000269AAA4B009601971340089E0493249B3A
:1034600003940293424633004946504600F0AAF9BD
:103470000400002D67D02020269A49460240130000
:103480005A4253415B42621C18400A9233002200A8
:103490004530D047099A6F1ED317D4185C40D30F1C
:1034A0009B46002501E0202D13D008AA94461F2337
:1034B000200063440A2101355E19FFF78BF9303192
:1034C000317020000A21FFF785F926000400092E3B
:1034D000E9D805230693002304930A3303935B463C
:1034E000089E029310AB0A9A009349463300504657
:1034F00005970195FFF704FE0C9A0400002A22D0DC
:103500004246851A259AAA421DD9B046574616004A
:1035100022004346494620200135B8470134AE42D7
:10352000F6D810E0269B42460493259B4946039318
:10353000249B50460293229B239C00930194089B5A
:1035400000F040F90400200019B0F0BCBB46B246C0
:10355000A946A046F0BD6A4B78009C46400D6044E9
:10356000FFF7FAFB674A684BFFF793FB674A684B24
:10357000FFF770FB674A3B031B0B1A4304000D0067
:1035800009981100644B0022FFF75FFB634A644B0C
:10359000FFF77FFB02000B0020002900FFF75AFB1A
:1035A000FFF7F2FB0990FFF7D7FB5E4A5E4B040082
:1035B0000D00FFF76EFB00225C4BFFF74BFBFFF7A4
:1035C000E3FB5B4A5B4B29000C902000FFF761FB9B
:1035D00004000C980D00FFF7BFFB574A574BFFF74D
:1035E00058FB02000B0020002900FFF72EFB04000F
:1035F0000D0002000B000A940B95FFF74AFB040034
:103600000D000A980B9902000B00FFF723FB002224
:103610000E900F914A4B20002900FFF720FB00225B
:10362000484BFFF717FB02000B0020002900FFF7B3
:1036300016FB0022444BFFF70DFB02000B0020009D
:103640002900FFF70CFB0A9A0B9B0D008021040058
:10365000C9050020FFF7F9FA02000B00200029003D
:10366000FFF7F8FA02000B000E980F99FFF7F7FA30
:103670000022284BFFF7EEFA344B0C9C9C46644426
:1036800023050022FFF705FB04000D0002000B00DC
:10369000300039000A940B95FFF73AFB00285DD102
:1036A00023002A00C625099963318D42AD41594650
:1036B0006D420435002900D1A3E6134363D03000E6
:1036C0003900234A234BFFF729FB002807D00022AB
:1036D00030003900204BFFF71BFB002853D1249BFF
:1036E000002B00D18DE60D9B5A1E9341249AD31ACC
:1036F000249386E6FFFFEF7FFFFFEFFFFFF7FFFF5B
:1037000001FCFFFFFB799F501344D33FB3C8608B8C
:10371000288AC63F0000F03F0000F83F61436F6316
:10372000A787D23F71A379094F930A400000E03F79
:103730001655B5BBB16B0240EF39FAFE422EE63F9B
:1037400000002C400000244000001840FF0300004F
:103750002D431CEBE2361A3F80842E41099B002248
:10376000013B09932000164B2900FFF778FA0A0065
:10377000010003000A910B9294E7002300240A93AE
:103780000B9400230993249A099B9A4214DDD31ABF
:10379000013B24938023269ADB001A430023002553
:1037A000269209932DE6802212069446229B1E0043
:1037B000239B63441F0006E600232493EAE7C046E8
:1037C00000002440F0B54546DE464E465746E0B57B
:1037D00095B08B46904699461E9A1F9B0A901900F9
:1037E0001000209DFFF7A7FA002800D0B0E11E9836
:1037F0001F990122C74B5242FFF78AFA002800D0D6
:1038000037E11E981F990122C34B5242FFF78EFAEF
:10381000002800D0A7E01E981F990022BF4BFFF799
:1038200085FA002800D088E01E981F990022BC4B22
:10383000FFF76EFA002800D07FE01E981F99002243
:103840000023FFF765FA002800D0FAE000230B936D
:103850008023229C229ADB001C401A4200D102E104
:10386000092D00D87CE106A98C462C0017220023E4
:103870003021093C62440133D154EF1A202B00D18E
:1038800032E1A342F7D10022A44B069207931E987F
:103890001F99FFF779FA0500FFF75EFA02000B00A7
:1038A0001E981F99FFF7D1F9069A079BFFF7F1F9C8
:1038B00008900991FFF78CFA0600FFF749FA020019
:1038C0000B0008980999FFF7C0F90022954B089062
:1038D0000991FFF72BFA002800D1D2E00136300021
:1038E000FFF736FA069A079BFFF718FA002801D06F
:1038F00000260135AA46002F00D098E02800FFF7E7
:103900002BFA02000B001E981F99FFF79EF9854BBA
:10391000002206000F00FFF7FBF90CAB9A460028C7
:1039200045D10022300039007E4BFFF7FFF9002817
:103930003DD1EB073BD5013539E0229B424604934C
:10394000219B594603930A981E9B1F9C0295009346
:1039500001944B46FFF704FD15B0F0BCBB46B246E0
:10396000A946A046F0BD229B5B0767D403226E4B9D
:1039700022990192039121990291009342464B466C
:1039800059460A98FFF766FBE6E706AA944617230E
:10399000280063440A2101341E19FEF7F3FE30317A
:1039A000280031700A21FEF7EDFE051E76D0202C8E
:1039B000EBD10323229A1340012B1DD1219B002B15
:1039C0001AD00B9B002B00D0BBE0229A0C33134281
:1039D00000D0B6E0219BA34200D887E006AB9C460E
:1039E00017223023624404E02199013413558C429C
:1039F00059D0202CF8D12024229B01940393219BA1
:103A000002935346B9E706AA944617230A21634452
:103A1000300001341D19FEF7DDFE30312970300011
:103A20000A21013FFEF7D6FE092E46D90600202CBA
:103A3000E9D155460CAB20249A46B8E704223B4B0B
:103A400096E71E9A1F9B00200021FFF7FEF8012336
:103A50000B938023229C229ADB001E901F911C4016
:103A60001A4200D0FCE60022314B0627069207934B
:103A70000DE7229B0393219B0293042301932D4B7B
:103A80007BE7002208980999264BFFF741F90028A7
:103A900000D02FE7002E4FD101362BE70323229AC7
:103AA0001340012B66D0202CA6D00B9B002B1FD0DF
:103AB0002D235246135501349EE75546202CB9D08C
:103AC00030233A19002F08D0172006A9013409180D
:103AD0000B55202CAED09442F6D10CAB9A462E2337
:103AE00052461355013462E72024CCE6202C83D0C3
:103AF000229B5B0708D4229B1B0700D47CE7202372
:103B000052461355013477E72B235246135501349F
:103B100072E7C046FFFFEFFFFFFFEF7F65CDCD41AE
:103B200065CDCDC10000E03FEC5C0010E45C00100E
:103B300080842E41F45C0010F30700D4DAE60136ED
:103B4000D8E6219B013B2193A34200D946E7AAE78F
:103B5000229B0393219B029303230193074B0CE7C2
:103B6000074BEA009B185C681B682F0006930794BC
:103B700000248CE6219B002B95D022E7F05C0010FE
:103B800020610010F0B55746DE464E464546E0B58A
:103B9000A5B01F002E9B91460D93CA4ACA4B824680
:103BA0008B461A60002900D129E200233878984614
:103BB000002800D12BE2C54B44460C93C44B55461C
:103BC0004E460E930AE0631C984622003300594685
:103BD000A84744463878002800D187E001372528D7
:103BE000F1D108239A46043B9946023B9846013B93
:103BF00000229C460B943878791C0300203BDBB2F2
:103C0000102B03D80C9C9B00E3589F460300303BCD
:103C10000B9C0B92092B3AD9002398462A2800D1F5
:103C2000DDE000239A462E284BD00300683BDBB230
:103C3000122B1ED80E9A9B00D3589F4663460F0046
:103C40001A43D8E743460F001A43D4E74B460F0008
:103C50001A43D0E710230F001A43CCE753460F0056
:103C60001A43C8E780235B000B9A78781A430B92BB
:103C700001310F0067284FD82428A4D90300253B21
:103C8000DBB2422B9FD893499B00CB589F46002321
:103C900098460B9B47469C4600E00131BB00DB1970
:103CA0005B001F180878303F0300303B092BF4D924
:103CB00063460B930023B8469A460F0001312E2825
:103CC000B3D180200B9AC00002430B9230225242A3
:103CD000944678780B0084446246092A00D8AAE109
:103CE0002A2800D1B9E10F0001319EE7A046AA467B
:103CF000B146C84503D301235B424B4498464B462B
:103D0000424659460020D047200025B0F0BCBB46B3
:103D1000B246A946A046F0BD01006939C9B20F29D3
:103D200000D950E701238B409C466B4B9946634674
:103D30004A4613400F9362464B461A4200D068E150
:103D40000A2956D0072900D03DE70D9B02CB9846A3
:103D5000002900D092E10B9B10211A008A43100029
:103D600011310843814680201A00C0000240110032
:103D700003421CD114AB9C461F220F2362440D95B5
:103D80009C4615000F9B0B9402E0202B0CD01100D9
:103D900064460C4020003730092C00D80738013326
:103DA000E8540A090F29F0D80B9C0D9D0F934B4640
:103DB0000822069353460592083203920022049388
:103DC0000F9B029201931CAB2200009359463300D3
:103DD0002800FFF795F9434604000D93FAE60D9B82
:103DE00004CB9046002A79DB78780D930F000131DF
:103DF00017E70D9B02CB14930B789C461800534693
:103E0000002B00D134E1002815D05346013B01338B
:103E100099460D940B9C89444A460B00A14601E04B
:103E2000934203D05C780133002CF9D14A465B1AE7
:103E30000D9C0B920F938023DB0099460B9A134045
:103E40000D934B461A4204D00F9B534501D953465C
:103E50000F93022399460B9A13400B934B46134240
:103E600000D1F5E16346002B00D1D6E10D9B002B7C
:103E700000D182E10B1BD14631009A463B00A144A0
:103E80002E005F464D4622009B46894609E04B4680
:103E90003900541CB0475346185D002800D192E108
:103EA00022009542F3D14B465A46A946BB463500FF
:103EB00017001E004C460B9B002B00D0ADE1149B5D
:103EC0000D9387E6853B0010080C0020845F0010EE
:103ED000C85F001014600010419000000B9A283851
:103EE00002430B9242465242787890460F000D935F
:103EF000013196E678786C2800D15DE180230B9A39
:103F00005B001A430B920131B3E680239B00ABE6C2
:103F10007878682800D148E180230B9A01311A4350
:103F20000B92A6E6672800D1B2E0472800D11AE13B
:103F3000452800D11CE10B9A0721049242460D9BB3
:103F40000392073352468B43190002920CC9280092
:103F5000009201930D91220033005946FFF700FAB9
:103F6000040037E6462800D18DE00B9A0721049221
:103F700042460D9B0392073352468B43190002922F
:103F80000CC92800009201930D912200330059467C
:103F9000FFF718FC04001DE6631C9846220033005E
:103FA00059462520A847444614E60D9B04330F9339
:103FB000631C99460B9B9A0700D40AE10D9B2200D3
:103FC000187859463300A84743464444012B00D88B
:103FD0006FE1B0462E0025004C46B9465F462200F0
:103FE0004346013439002020B047AC42F7D12C00C1
:103FF000BB4635004F4646460F9B0D93EAE5D64B30
:1040000038789A4600239846002800D0D3E500244B
:104010006FE66F2842D000D8FDE11023782800D148
:104020009BE00B9A9A430B920A239C46002314931D
:104030000A330F9338E057460B9AB900C919490063
:1040400001330F181878303F010030390929F4D9AD
:10405000BA460B921F00591CE7E50D9BB87804CBBC
:104060000237D143C9170A4092460D93791CDCE50B
:10407000002800D1DFE602235B42C8E621200B9A2C
:104080000243914676E620230B9A1A430B926CE783
:1040900080230B9A1B011A430B924CE708239C4682
:1040A0000023149308330F930B9880230200DB0046
:1040B0001A4011000200184200D080E00C239A43FD
:1040C0001000802302009B001A400B92184200D07F
:1040D000F1E0802302005B001A4091460D9A043201
:1040E0001492184200D0C3E2430600D5D7E003067D
:1040F00000D421E30D9B1B880993002B00D02DE1F8
:1041000010339843002900D128E100239946434603
:104110000593534604930F9B069003930023029349
:104120004B4601931CAB22000093594633002800F4
:10413000FEF7E6FF0400C2E6582809D0622800D046
:10414000E3E202239C460023149302330F93ABE770
:1041500020230B9A1A430B92103B9C460023149386
:1041600010330F93A0E780230B9A1B011A430B9285
:1041700020230B9A1A430B92DDE60B1B9A460F9BEA
:1041800099463B0037005E469B4622003B003100CB
:10419000A84753460134185D0028F6D14B460F93CB
:1041A0005B46B3463E001F0085E6C0230B9AB878F5
:1041B0001A430B92F91C5CE5C0239B00F6E70D2324
:1041C0009A4310007DE75B463500BB464E461F0014
:1041D00071E64346012B66D9631E434432002E002C
:1041E0001D003B00A2465F4691469B4622004B467F
:1041F000013439002020B047AC42F7D15B4635008E
:10420000BB464E46A14654461F000D9B4A461878B1
:10421000594633004444A847EEE60F9BA146984513
:1042200000D84CE64444E41AB0462E0025004C4623
:10423000B9465F4622004346013439002020B0478A
:10424000AC42F7D12C00BB4635004F46464636E619
:104250000F98804500D873E24346E218131A3200E3
:104260002E001D003B0091465F469B460F912200A9
:104270004B46013439002020B047AC42F7D15B46B1
:10428000BB461F0043460F9901330F930B7835004F
:104290009C464E466046002800D0E7E50FE60D9BA1
:1042A0001B78099329E70D9B2200187859463300A3
:1042B000A8474C46A0E60D9AFA3BFF3B07329A43CB
:1042C0000133994691444B460D93136852681592F9
:1042D0001A4306D11032904300220992002900D0DF
:1042E00083E06122810600D54122D2B20A9214AA4B
:1042F00091460A9A00210A3A0B9242461792524678
:1043000018925A46B24609911E001F31149B494427
:10431000BB4616941A950024674698468946159D13
:1043200019901B920AE03032D2B24B4601341A5532
:10433000A8454CD0202C4CD006000D003A0000239C
:1043400030002900FEF784FAD2B2092AEBD90B9B80
:104350009C466244D2B2E8E75130001061238206E5
:1043600000D54123DBB20A3B0B93434614A91F221D
:104370008C46159353466244B2460D9417974C46AB
:104380008046A9461700099D0F9E169308E030331A
:10439000DBB201343B55B5420ED3202C0CD00500C6
:1043A00031002800FEF716FACBB20929EFD90B9A93
:1043B00094466344DBB2ECE7159B40469846169B57
:1043C0004D465646A1469A460D9C179F9FE6B7421A
:1043D000B0D9179B56469846189B5F469A461B9B3A
:1043E00009949B46169C19981A9D4346059353467B
:1043F00004930F9B0690039300230293099B019360
:104400001CAB22000093594633002800FEF778FECB
:104410000400FFF7DFFB10230B9A9A430F926928E1
:1044200000D091E10B9980230A00DB001A401000B4
:104430000A00194203D0112118008A430F920F9AE3
:10444000802311009B0019408C461A425BD18023C7
:1044500011005B00194089460D9904310B911A42F5
:1044600000D0B2E013005B0600D4EDE00D9B1B789A
:104470001A00D90F0D91002B00D1A3E0100014AA4F
:10448000944642461F23159252466344A846BA46B4
:104490004D461494B14604001F00169201E0202DF1
:1044A0000FD020000A21FEF795F901357E19303131
:1044B000317020000A21FEF78DF926000400092E34
:1044C000EDD8159B4E46A94645469846169B57463D
:1044D0009A46149C0F9B06934346059353460493B8
:1044E0000A2303930D9B02934B4601931CAB2200BE
:1044F0000093594633002800FEF702FE0B9B040090
:104500000D93FFF767FB07220D9B0733934301329F
:1045100094469C4462460D920CCBD90F0B9111002E
:10452000194300D19BE0D91713911291514010917A
:1045300013995940119110981199129A139B801A4E
:1045400099411090119114AA944642460023159265
:1045500052469946169232001F336344A8464E468F
:10456000BA4614941F00109C119D914601E0202E24
:1045700010D0200029000A220023FEF769F9013635
:1045800030322B00BA550D0022000400002BEED172
:10459000092AECD8159B10941195454698464B4630
:1045A000169AB14657461E009246149C0F9B0693DE
:1045B00043460593534604930A2303930B9B0293AC
:1045C0004B461CE7002885D159E70D9B1B68DA0F85
:1045D0001100002B00D1A6E0DA179818504014AA59
:1045E00091461F2342464B44A8460D94169704005B
:1045F0006546B1461F001491159201E0202D0FD0A1
:1046000020000A21FEF7E6F801357E1930313170BD
:1046100020000A21FEF7DEF826000400092EEDD85E
:10462000159BAC4645469846149B4E4619000D9C7A
:10463000169F0F9B0291069343460593534604939E
:104640000A230393634650E713001B066ED50D9BA8
:1046500000229B5ED9175A184A4092B209E70023FC
:1046600099460028A2D100220023109211936AE7F4
:104670000D9B1B689946002B03D1103398430029EA
:1046800038D16123820600D54123DBB20A3B0D936A
:1046900043461693534614A91F228C4617932B00AA
:1046A00062444D46B24615941897804617009946C5
:1046B0000B9C0F9E08E03033DBB201343B55B54212
:1046C0000ED3202C0CD0050031002800FEF782F814
:1046D000CBB20929EFD90D9A94466344DBB2ECE7DB
:1046E000169B40469846179B56464D469A460B9455
:1046F000189F159C43460593534604930F9B0690C1
:104700000393002302930B9B0BE50B9980230A0074
:10471000DB001A4010000A00194200D08BE610237B
:104720009A430F928BE6002883D158E70D9B1B68B4
:10473000D9175A184A409CE60D9B1B680993DCE484
:10474000030001330F93A5E50B926DE40EB4012233
:1047500030B584B007AC08CC064D010000942800A9
:1047600052420394FFF70EFA04B030BC08BC03B009
:104770001847C0464930001010B5094A03001468B4
:1047800084B0002C08D0012200910648524203A9AF
:10479000A047012004B010BD00F078F90020F9E72F
:1047A000080C00205133001000BEFDE7094A030049
:1047B0001068002805D00849C3188B4207D8136039
:1047C000704706480449C31810608B42F7D901208E
:1047D0004042F5E7000C002000000420540D0020AA
:1047E00010B5FFF7E1FFC04670B5FDF7F3FE074DCA
:1047F000074EB54209D20024013E761BB60808CD0B
:10480000984723000134B342F9D170BDC45B001056
:10481000C85B0010030010B5080011001B68984722
:1048200010BDC046F0B5C64600B5437D07000D007B
:104830001600002B38D0002A2EDD00216A1E90467B
:104840006A5C037D4C1C00200A2A0CD0A64216D0BC
:1048500043461B5D21000D3B5A4253416A5CDBB26B
:104860004C1C0A2AF2D1002BF0D1884217DB02211E
:1048700010483B689847A64207D02000E8E78642E8
:1048800003DD311A3B6828189847AD19013D2B7894
:104890000D3B5A4253413B7580BCB846F0BD091AE6
:1048A0003B6828189847E2E70368110028009847FA
:1048B000F2E7C04670610010F0B5DE4657464E463E
:1048C0004546E0B585B017001C0006000D00FDF759
:1048D00007FC0023314A12184B41802109068B4204
:1048E00002D301222E4B52422E4908008A4601F083
:1048F00043F901906B1C03D1300000F0B1FF0500BB
:10490000002C26D0284B9846284B1C68002C15D02C
:10491000002F21D1264F02E02469002C0ED02368FD
:10492000002BF9D03B68002B01D09C42F4D1200031
:104930002A003100C0472469002CF0D1019B002BD4
:1049400028D1280005B0F0BCBB46B246A946A04617
:10495000F0BD184B9846D7E7154B994602ABDF1DC3
:104960000A239B4602E02469002CE7D02368002B31
:10497000F9D04B461B68002B01D0A342F3D12A008B
:1049800031002000C0475B460122390020003B7007
:10499000C047E8E7504601F0D7F8D2E740420F00A1
:1049A000FFFFFF7FC007002025480010F40B002008
:1049B000FC0B0020154800100A4A1368002B05D193
:1049C0000CE01A001B691032002B07D09842F8D176
:1049D000002902D103691360016170470029FCD0EE
:1049E0001060FAE7F40B002010B500F03BF901204D
:1049F00010BDC046F0B5CE46474680B583B06B4685
:104A00000600DD1D2870FDF76BFB00231A4A121803
:104A10004B41802109068B4202D30122174B52429F
:104A200017490800884601F0A7F8164B81461C6814
:104A3000002C14D0144F02E02469002C0FD02368FE
:104A4000002BF9D03B68002B01D09C42F4D1200010
:104A500001222900FFF7E6FE2469002CEFD14B4626
:104A6000002B05D1300003B0C0BCB946B046F0BD44
:104A7000404601F069F8F5E740420F00FFFFFF7F75
:104A8000C0070020F40B0020FC0B002070B50400D0
:104A900000F0E6FE01230100050001222000FFF7DF
:104AA0000BFF084B1C68002C06D06368002B05D058
:104AB00098472469002CF8D1280070BD2469002C87
:104AC000F3D1F9E7F40B0020F0B5002915DD0E4B0A
:104AD0000D271A680D4B0E4CD3185D426B414518DB
:104AE00020215B001E5F0478A64207D0936919421B
:104AF000FCD101301460A842F5D1F0BD9369194290
:104B0000FCD11760F2E7C0464C0D00200080FCBFCE
:104B1000480D0020204B70B504000D1E1E682ADDD4
:104B2000002010211D4B013C1A689369194214D1D1
:104B3000013093691942FCD1136823548542F4D1A2
:104B4000002E08D050239363516B183B0B4014493F
:104B50008C466244136028000CE0002E08D05023DD
:104B60009363516B183B0B400D498C4662441360B4
:104B700000280DD070BD002E0AD05022074B1B68B4
:104B80009A63596B183A0A4005498C4663441A6087
:104B900003204042EEE7C046C00B00204C0D002031
:104BA00034100000064B10B51B68002B06D0002106
:104BB000044A12689163044A1068984710BDC046C1
:104BC000C00B00204C0D0020C40B00200822034B1A
:104BD00019688B691A42FCD17047C0464C0D002001
:104BE000F8B51A4F1A4B3A680500D318584243419A
:104BF000184E14331C003368002D02D0002B0FD048
:104C0000F8BD002BFCD0002120009563FCF718FDB7
:104C100020001149FCF750FD104B35601D60EFE797
:104C20000E4B200019600C493560FCF71BFD01217B
:104C30002000FCF705FD50223B689A63596B183A37
:104C40000A4007498C4663441A60D9E74C0D00209E
:104C50000080FCBFC00B0020A54B0010C40B00203F
:104C6000341000000D4B10B51B780D4B0D4C1B780C
:104C70000D4B02211B780D4B00202360FCF702FC3A
:104C800002210120FCF7FEFBE12120684902FDF72B
:104C900075FA01210648FFF78FFE10BDB4610010C0
:104CA000B06100104C0D0020AC61001000400340CA
:104CB00040020020F0B557464E46DE464546844643
:104CC000E0B583B01F000CAB187863469146002214
:104CD0001B680190DA6601325960DA66002F4FDDF9
:104CE0007A1E9046624612790126920280249346EB
:104CF0003A004640760280253700002046461021C3
:104D0000A2469046AD00841B624254414A4664422A
:104D10003C4000945C46125C2243009C22431A6192
:104D20005A6B1142FCD052469C58002C10D1B04214
:104D300021D00022013093468045E4D16346019A98
:104D40001A7103B0F0BCBB46B246A946A046F0BDFE
:104D50005A6D012293465A6B2A42FCD01A6E5A466B
:104D6000002AE6D0002C03D0E30701D42407E5D4C1
:104D700001204042E2E7019A002ADAD19346EAE7AD
:104D80000020DBE7F8B5DE4657464E4645468346EB
:104D9000E0B505200C00FDF76FFB06006008210060
:104DA0008019FDF717FD4300984680440700052150
:104DB0004046FDF70FFD3B1A9A461E4B8146700098
:104DC00080199C4231D81C49FDF704FD451C5B4607
:104DD0001C680023E366226804335A400233134000
:104DE00080225201A21813605346E3614B462362AE
:104DF000434601204F2B03D950214046FDF7EAFCE2
:104E0000A023E050E36F39005D400C4B2D042D0CC6
:104E1000E3181D6001233000E366FDF7DBFCF0BC06
:104E2000BB46B246A946A046F8BD0549FDF7D2FCEF
:104E3000451CCCE73F420F00809698007C10000094
:104E400040787D010F4A70B5821A531E9A410E4B6D
:104E5000D20008321A600D4B0D4C1A601500236801
:104E60009D432B1EFAD166240268FF340571D56676
:104E70001460633C8833FF3CD5639563D450FFF7DF
:104E800081FF70BD6002002000E0004000F00040A3
:104E900008C0004010B582B004AC24780094FFF73D
:104EA00009FF02B010BDC046F0B55746DE464E467B
:104EB00045468846E0B583B006000524FCF75CFB58
:104EC000434684461C571879364B374AF3181B0D56
:104ED0009B009246D75801228240013A002C42DBC7
:104EE0002021091A8C423BDC1100A14025000F4211
:104EF00036D14146096889464146897900294DD114
:104F0000AA4093463A423FD1802189010022884637
:104F1000002816D06146A44634004E469946030048
:104F200001915100705A404500D240195119123177
:104F30008900013208519342F3D8019B64469C4694
:104F40004B465A4617435246D7506046FCF720FB63
:104F5000200003B0F0BCBB46B246A946A046F0BD57
:104F600001246442F1E72024241A0DD41100A14049
:104F700025008B46394205D109E01100A1402500EA
:104F80000F42B6D0013CF8D209246442DDE7424624
:104F90001268914642469279002AB5D014246442A0
:104FA000D3E7C0460000E0AFB80B0020F0B54E4696
:104FB0004546DE465746E0B583B089460CA984468F
:104FC0000D781F2A45D84946490088464944C900FA
:104FD000461837003400DC373868CC348346206804
:104FE000310001901C4880248246A40251440C6088
:104FF00069424D411E216D428D4318498A465544F0
:10500000052B0CD9A0201F214005D836540104439C
:105010000532053B3C600A403560052BF6D852014D
:105020009B06134342464A44D20062441000DC32DD
:1050300013600300D8331D605B461360019BCC30C6
:105040000360002003B0F0BCBB46B246A946A046B0
:10505000F0BD05204042F5E7CC3000009FE00000A5
:10506000F0B501258D400468AC430460002B2ED0C0
:105070004D006C18E400041926001F68C83637601C
:105080009F68043677605F68DB68DC3437602360D4
:105090006B18184DDB00AC468025C41864442D06FF
:1050A00025602560144C0D1D8C4084600124260071
:1050B000AE40802508318C401F21AD014519C01834
:1050C0000A40D8302E602C6002600020F0BD4D00F8
:1050D0006C18E400041926008027C8367F02376068
:1050E000C0273F03B760F82704367F02DC343760FF
:1050F0002360CDE7D010000001010101012301214F
:10510000084A1360084A1360084A08001368984365
:10511000FBD1074A11608021490013680B42FCD083
:105120007047C04600E0004000F0004008C000406A
:1051300000C00440030010B50A00034908681900C4
:1051400000F004F810BDC0467806002070B50B0CC6
:105150000024150C002B28D1002D3CD18BB291B22C
:10516000594300F047F8051E33D00300083B5A6846
:1051700003239A43043A242A12D80300132A0AD993
:105180000460446008331B2A05D98460C460242A63
:105190002AD00300103300221A605A609A6002E09D
:1051A0000021FDF745FF280070BD002D16D1151C0C
:1051B00089B292B24A43ADB29BB26B43110C5B18F9
:1051C000190C0BD1190492B2114300F013F8051E0B
:1051D000CBD10025E7E72B1C0D1CE9E700F028FBED
:1051E0000C2300250360DEE70300046118334461EB
:1051F000D1E7C046F0B54E464546DE465746E0B5D7
:105200000D000B35060085B0162D27D8102900D9C2
:10521000DAE000F0D1FA102518230221C74FFB185D
:105220001A005C68083A944200D146E103226368A0
:10523000A1689343E268CA6091600121E3185A684B
:1052400030000A435A6000F0BFFA2000083005B071
:10525000F0BCBB46B246A946A046F0BD07239D431D
:1052600000D5B1E0A94200D9AEE000F0A5FAFC23D8
:105270005B009D4200D29AE1690A00D1A8E00429AE
:1052800000D94FE138239846A90988443931CB0029
:10529000082252429446A94FFB189C446346DC689E
:1052A000A44514D0032399460B0061469C4607E0B1
:1052B000E068002A00DBFAE0814200D1FBE0040054
:1052C0004A46636893435A1B0F2AF1DD41463A0070
:1052D0003C690832944200D1D8E0032063688343DC
:1052E000581B0F2800DD66E13A617A610028A4DAD4
:1052F0007A68904680229200934200D3E3E0DA0875
:10530000580901238340404618438046D300DB19E7
:105310009A687860E360A2609C60D46001208B1082
:10532000984040455CD8434603420AD10323994341
:10533000434640000431034203D14000043103429C
:10534000FBD00323B3469C460E00B8460190F00004
:1053500040440100B246CB680BE064465A681F0027
:10536000A243DB68541B0F2C00DDF3E0002C00DBB4
:105370000DE19942F1D101239946CA4453460831BF
:105380009B07E8D1032205E003680838013E834209
:1053900000D00AE23242F7D14346019A5B68934358
:1053A00042465360019A520001929A4216D8002A4E
:1053B00006D113E004229146019ACA445200019298
:1053C0001342F7D05646C2E70C23002033603EE775
:1053D00080233F22402190469B0059E75E46474686
:1053E0000322BC68636893439946AB4202D35B1BBC
:1053F0000F2B4EDC23004B440293514B08201B68BB
:1054000010335B19019300F01DFA4E4903900B68AD
:105410008B46013306D08446019B4242013B6344E4
:10542000134001933000019900F0F0F90300804629
:10543000013300D1DDE0029B834200D9D7E0019A1D
:10544000414B944619689A466144039A1960029B3D
:105450000800013A434500D0EAE04346134200D039
:10546000E6E0BB68984663464B441A0001231A43A2
:1054700043465A60354B1868884200D21960344B55
:105480001868884200D219604446B4E07B689846A8
:1054900044E701222900134311436519616030007C
:1054A000BD606B6000F090F920000830CFE6A26884
:1054B000D0608260C1E6614609E7DC680231A34240
:1054C00000D104E7B2E65A0A042A00D888E0142A78
:1054D00000D90FE110005B3082465C32D200082018
:1054E00040428446BA189444624692680B30814622
:1054F000944500D1E5E00800A2466146844602E0FA
:105500009268914204D04C465068A0439842F7D824
:10551000D368614654469C466346A260E3609C6043
:10552000D460FBE6142973D9542900D9EBE06E232B
:105530009846290B88446F31CB00A9E67002002001
:105540007C0A0020680200204C0A0020740A002017
:10555000780A0020BA46012051468446491905437D
:1055600050464560856847466046EB605E469D60F4
:10557000534639617961204308374860CF60300075
:105580008F609C5000F020F9504608305FE6BA4624
:1055900001205E465244516801435160BA683000B0
:1055A000D3609A6000F010F9380008304FE62B0005
:1055B000E908083332E66119884601218C460D431B
:1055C0004146656039617961CA608A60624602431A
:1055D0004A60E050300000F0F7F82000083036E66E
:1055E0009A091000393238308246D20077E7BC423F
:1055F00014D0BC68626803239A43531BAA4202D3A7
:105600000F2B00DD45E7300000F0DEF800201EE63D
:105610005B23984688445C31CB0039E6644B9A465C
:105620001868019B9C46534660441860039B5A1EB1
:105630005B461B68013371D0434602995B1A5146A1
:105640001B180B600723414640461940029118423F
:1056500040D00398013384465B1A01999844414431
:105660000191634411405B1A1A40110030009346C7
:1056700000F0CCF8431C78D04346C01A03005B44CA
:105680000193534619680120594419604346019A11
:10569000BB6002435A60BC4200D1EBE64B460F2B85
:1056A00040D907220C3B93436268024005201A430D
:1056B0006260E218506090600F2B4BD843465A68E6
:1056C000D8E653469810012383404046184380464D
:1056D000786021E7019B039943441340CB1A1A4099
:1056E00011003000934600F091F8431CC4D1002310
:1056F0009B46C6E7542A18D81A0B10006F326E303A
:105700008246D200EBE6AA235B00994218D8DD3B23
:105710009846E90B88447831CB00B9E55B464146B1
:1057200019608FE7434658606DE7AA204000824227
:1057300026D8DA0B1000783277308246D200CEE6D7
:105740001C4B994226D87C239846A90C88447D316D
:10575000CB009DE521003000083100F009F95346E7
:105760001968BB6898465A6884E6019A029B944679
:105770004246083B63449B1A019300239B4680E703
:105780000C4882420CD89A0C10007D327C30824644
:10579000D200A4E6FE237E227F2190469B0077E57F
:1057A000FE227E209200824699E643465B68F9E538
:1057B0004C0A00205405000010B5024800F03EF8E5
:1057C00010BDC046480A002010B5024800F038F865
:1057D00010BDC046480A0020094B10B51C68094A94
:1057E000983420686168084BFDF766FB01220023AE
:1057F00080185941206061604800400810BDC046D3
:10580000780600202D7F954C2DF45158002370B55B
:10581000064C050008002360FEF7C8FF431C00D0BB
:1058200070BD2368002BFBD02B60F9E7F80B00203C
:10583000014B18687047C046780600207047C04684
:105840007047C046802310B55B01082801D11800BD
:1058500010BDFFF7EDFF16230360173BF7E7C046C7
:1058600010B583070AD00300032102E001330B4285
:1058700005D01A78002AF9D1181A10BD030019684A
:105880000C4A0D4C8A188A4322420FD15968094AA2
:1058900004338A188A43224208D15968054A0433DE
:1058A0008A188A432242F1D000E001331A78002A94
:1058B000FBD1E1E7FFFEFEFE80808080F0B5C646AA
:1058C000060000B508200D00FFF7BCFF0400300003
:1058D000FFF772FF234B210098469B685F68032304
:1058E0009F4338001138401B0019FCF773FF451E19
:1058F0006543AC4208DC00213000FFF787FF4346D8
:105900009B68DB19984206D03000FFF75DFF00204E
:1059100080BCB846F0BD30006942FFF777FF013028
:105920000ED0012243467F1B9B6817430E4A5F60DF
:10593000136830005B1B1360FFF746FF0120E7E7A9
:1059400000213000FFF762FF43469A68831A0F2B4D
:10595000DADD064C04492468001B086001210B4372
:105960005360D1E7700200204C0A0020680200203A
:10597000F8B5CE46474605000C0080B5002957D043
:10598000FFF71AFF012321009C4608394868624648
:10599000030003249343CF187A68654EA243B4688A
:1059A000BC4200D170E0BC18A14664467A60044253
:1059B00021D10868091A1B18886880464846406843
:1059C0002040340008348146A04551D04046CC6880
:1059D000C460A0604846002811D19B185548BA6899
:1059E000824200D17FE0F868D060826001221A43D1
:1059F0004A60CB5007E0484640682042EDD06246FE
:105A00001A434A603B6080229200934214D2DA0823
:105A1000580901238340706803437360D3009B19C6
:105A20009A68CB608A609960D1602800FFF7CCFE4D
:105A3000C0BCB946B046F8BD5C0A042C3DD89C09F0
:105A4000200039343830E40034192268083C032738
:105A5000944203D140E09268944203D05068B84326
:105A60009842F8D8D468CC608A60A160D160DCE745
:105A7000002858D1B868D218FB68C36098606346A4
:105A800013434B608A50D0E79A186346034206D10D
:105A90000B68C91A8868D218CB68C3609860012364
:105AA00013434B60244BB1601B689342BDD8234B1A
:105AB00028001968FFF702FFB7E7142C07D9542C08
:105AC0001AD81C0B20006F346E30E400BCE72000B5
:105AD0005C345B30E400B7E70123801083407068DA
